{
  "contractName": "IpfsNft",
  "abi": [
    {
      "inputs": [],
      "stateMutability": "nonpayable",
      "type": "constructor"
    },
    {
      "anonymous": false,
      "inputs": [
        {
          "indexed": true,
          "internalType": "address",
          "name": "owner",
          "type": "address"
        },
        {
          "indexed": true,
          "internalType": "address",
          "name": "approved",
          "type": "address"
        },
        {
          "indexed": true,
          "internalType": "uint256",
          "name": "tokenId",
          "type": "uint256"
        }
      ],
      "name": "Approval",
      "type": "event"
    },
    {
      "anonymous": false,
      "inputs": [
        {
          "indexed": true,
          "internalType": "address",
          "name": "owner",
          "type": "address"
        },
        {
          "indexed": true,
          "internalType": "address",
          "name": "operator",
          "type": "address"
        },
        {
          "indexed": false,
          "internalType": "bool",
          "name": "approved",
          "type": "bool"
        }
      ],
      "name": "ApprovalForAll",
      "type": "event"
    },
    {
      "anonymous": false,
      "inputs": [
        {
          "indexed": true,
          "internalType": "address",
          "name": "from",
          "type": "address"
        },
        {
          "indexed": true,
          "internalType": "address",
          "name": "to",
          "type": "address"
        },
        {
          "indexed": true,
          "internalType": "uint256",
          "name": "tokenId",
          "type": "uint256"
        }
      ],
      "name": "Transfer",
      "type": "event"
    },
    {
      "inputs": [
        {
          "internalType": "address",
          "name": "to",
          "type": "address"
        },
        {
          "internalType": "uint256",
          "name": "tokenId",
          "type": "uint256"
        }
      ],
      "name": "approve",
      "outputs": [],
      "stateMutability": "nonpayable",
      "type": "function"
    },
    {
      "inputs": [
        {
          "internalType": "address",
          "name": "owner",
          "type": "address"
        }
      ],
      "name": "balanceOf",
      "outputs": [
        {
          "internalType": "uint256",
          "name": "",
          "type": "uint256"
        }
      ],
      "stateMutability": "view",
      "type": "function",
      "constant": true
    },
    {
      "inputs": [],
      "name": "baseURI",
      "outputs": [
        {
          "internalType": "string",
          "name": "",
          "type": "string"
        }
      ],
      "stateMutability": "view",
      "type": "function",
      "constant": true
    },
    {
      "inputs": [
        {
          "internalType": "uint256",
          "name": "tokenId",
          "type": "uint256"
        }
      ],
      "name": "getApproved",
      "outputs": [
        {
          "internalType": "address",
          "name": "",
          "type": "address"
        }
      ],
      "stateMutability": "view",
      "type": "function",
      "constant": true
    },
    {
      "inputs": [
        {
          "internalType": "address",
          "name": "owner",
          "type": "address"
        },
        {
          "internalType": "address",
          "name": "operator",
          "type": "address"
        }
      ],
      "name": "isApprovedForAll",
      "outputs": [
        {
          "internalType": "bool",
          "name": "",
          "type": "bool"
        }
      ],
      "stateMutability": "view",
      "type": "function",
      "constant": true
    },
    {
      "inputs": [],
      "name": "name",
      "outputs": [
        {
          "internalType": "string",
          "name": "",
          "type": "string"
        }
      ],
      "stateMutability": "view",
      "type": "function",
      "constant": true
    },
    {
      "inputs": [
        {
          "internalType": "uint256",
          "name": "tokenId",
          "type": "uint256"
        }
      ],
      "name": "ownerOf",
      "outputs": [
        {
          "internalType": "address",
          "name": "",
          "type": "address"
        }
      ],
      "stateMutability": "view",
      "type": "function",
      "constant": true
    },
    {
      "inputs": [
        {
          "internalType": "address",
          "name": "from",
          "type": "address"
        },
        {
          "internalType": "address",
          "name": "to",
          "type": "address"
        },
        {
          "internalType": "uint256",
          "name": "tokenId",
          "type": "uint256"
        }
      ],
      "name": "safeTransferFrom",
      "outputs": [],
      "stateMutability": "nonpayable",
      "type": "function"
    },
    {
      "inputs": [
        {
          "internalType": "address",
          "name": "from",
          "type": "address"
        },
        {
          "internalType": "address",
          "name": "to",
          "type": "address"
        },
        {
          "internalType": "uint256",
          "name": "tokenId",
          "type": "uint256"
        },
        {
          "internalType": "bytes",
          "name": "_data",
          "type": "bytes"
        }
      ],
      "name": "safeTransferFrom",
      "outputs": [],
      "stateMutability": "nonpayable",
      "type": "function"
    },
    {
      "inputs": [
        {
          "internalType": "address",
          "name": "operator",
          "type": "address"
        },
        {
          "internalType": "bool",
          "name": "approved",
          "type": "bool"
        }
      ],
      "name": "setApprovalForAll",
      "outputs": [],
      "stateMutability": "nonpayable",
      "type": "function"
    },
    {
      "inputs": [
        {
          "internalType": "bytes4",
          "name": "interfaceId",
          "type": "bytes4"
        }
      ],
      "name": "supportsInterface",
      "outputs": [
        {
          "internalType": "bool",
          "name": "",
          "type": "bool"
        }
      ],
      "stateMutability": "view",
      "type": "function",
      "constant": true
    },
    {
      "inputs": [],
      "name": "symbol",
      "outputs": [
        {
          "internalType": "string",
          "name": "",
          "type": "string"
        }
      ],
      "stateMutability": "view",
      "type": "function",
      "constant": true
    },
    {
      "inputs": [
        {
          "internalType": "uint256",
          "name": "index",
          "type": "uint256"
        }
      ],
      "name": "tokenByIndex",
      "outputs": [
        {
          "internalType": "uint256",
          "name": "",
          "type": "uint256"
        }
      ],
      "stateMutability": "view",
      "type": "function",
      "constant": true
    },
    {
      "inputs": [
        {
          "internalType": "address",
          "name": "owner",
          "type": "address"
        },
        {
          "internalType": "uint256",
          "name": "index",
          "type": "uint256"
        }
      ],
      "name": "tokenOfOwnerByIndex",
      "outputs": [
        {
          "internalType": "uint256",
          "name": "",
          "type": "uint256"
        }
      ],
      "stateMutability": "view",
      "type": "function",
      "constant": true
    },
    {
      "inputs": [
        {
          "internalType": "uint256",
          "name": "tokenId",
          "type": "uint256"
        }
      ],
      "name": "tokenURI",
      "outputs": [
        {
          "internalType": "string",
          "name": "",
          "type": "string"
        }
      ],
      "stateMutability": "view",
      "type": "function",
      "constant": true
    },
    {
      "inputs": [],
      "name": "totalSupply",
      "outputs": [
        {
          "internalType": "uint256",
          "name": "",
          "type": "uint256"
        }
      ],
      "stateMutability": "view",
      "type": "function",
      "constant": true
    },
    {
      "inputs": [
        {
          "internalType": "address",
          "name": "from",
          "type": "address"
        },
        {
          "internalType": "address",
          "name": "to",
          "type": "address"
        },
        {
          "internalType": "uint256",
          "name": "tokenId",
          "type": "uint256"
        }
      ],
      "name": "transferFrom",
      "outputs": [],
      "stateMutability": "nonpayable",
      "type": "function"
    },
    {
      "inputs": [
        {
          "internalType": "uint256",
          "name": "input",
          "type": "uint256"
        }
      ],
      "name": "getHash",
      "outputs": [
        {
          "internalType": "string",
          "name": "",
          "type": "string"
        }
      ],
      "stateMutability": "nonpayable",
      "type": "function"
    },
    {
      "inputs": [
        {
          "internalType": "uint256",
          "name": "input",
          "type": "uint256"
        }
      ],
      "name": "getTitle",
      "outputs": [
        {
          "internalType": "string",
          "name": "",
          "type": "string"
        }
      ],
      "stateMutability": "nonpayable",
      "type": "function"
    },
    {
      "inputs": [
        {
          "internalType": "string",
          "name": "input",
          "type": "string"
        }
      ],
      "name": "getTokenId",
      "outputs": [
        {
          "internalType": "uint256",
          "name": "",
          "type": "uint256"
        }
      ],
      "stateMutability": "nonpayable",
      "type": "function"
    },
    {
      "inputs": [
        {
          "internalType": "string",
          "name": "photoHash",
          "type": "string"
        },
        {
          "internalType": "string",
          "name": "photoTitle",
          "type": "string"
        }
      ],
      "name": "mint",
      "outputs": [],
      "stateMutability": "nonpayable",
      "type": "function"
    }
  ],
  "bytecode": "0x60806040526000600a553480156200001657600080fd5b506040518060400160405280600781526020017f497066734e6674000000000000000000000000000000000000000000000000008152506040518060400160405280600781526020017f495046534e4654000000000000000000000000000000000000000000000000008152506200009b6301ffc9a760e01b6200011d60201b60201c565b8160069080519060200190620000b3929190620001f5565b508060079080519060200190620000cc929190620001f5565b50620000e56380ac58cd60e01b6200011d60201b60201c565b620000fd635b5e139f60e01b6200011d60201b60201c565b6200011563780e9d6360e01b6200011d60201b60201c565b50506200038d565b63ffffffff60e01b817bffffffffffffffffffffffffffffffffffffffffffffffffffffffff1916141562000189576040517f08c379a00000000000000000000000000000000000000000000000000000000081526004016200018090620002cc565b60405180910390fd5b6001600080837bffffffffffffffffffffffffffffffffffffffffffffffffffffffff19167bffffffffffffffffffffffffffffffffffffffffffffffffffffffff1916815260200190815260200160002060006101000a81548160ff02191690831515021790555050565b8280546200020390620002ff565b90600052602060002090601f01602090048101928262000227576000855562000273565b82601f106200024257805160ff191683800117855562000273565b8280016001018555821562000273579182015b828111156200027257825182559160200191906001019062000255565b5b50905062000282919062000286565b5090565b5b80821115620002a157600081600090555060010162000287565b5090565b6000620002b4601c83620002ee565b9150620002c18262000364565b602082019050919050565b60006020820190508181036000830152620002e781620002a5565b9050919050565b600082825260208201905092915050565b600060028204905060018216806200031857607f821691505b602082108114156200032f576200032e62000335565b5b50919050565b7f4e487b7100000000000000000000000000000000000000000000000000000000600052602260045260246000fd5b7f4552433136353a20696e76616c696420696e7465726661636520696400000000600082015250565b61372d806200039d6000396000f3fe608060405234801561001057600080fd5b50600436106101375760003560e01c80636352211e116100b8578063929a79b11161007c578063929a79b11461038657806395d89b41146103b6578063a22cb465146103d4578063b88d4fde146103f0578063c87b56dd1461040c578063e985e9c51461043c57610137565b80636352211e146102bc5780636b2fafa9146102ec5780636c0360eb1461031c57806370a082311461033a5780638aa0fdad1461036a57610137565b80631e7663bc116100ff5780631e7663bc146101f457806323b872dd146102245780632f745c591461024057806342842e0e146102705780634f6ccce71461028c57610137565b806301ffc9a71461013c57806306fdde031461016c578063081812fc1461018a578063095ea7b3146101ba57806318160ddd146101d6575b600080fd5b610156600480360381019061015191906125d2565b61046c565b6040516101639190612b07565b60405180910390f35b6101746104d3565b6040516101819190612b22565b60405180910390f35b6101a4600480360381019061019f91906126d1565b610565565b6040516101b19190612aa0565b60405180910390f35b6101d460048036038101906101cf9190612596565b6105ea565b005b6101de610702565b6040516101eb9190612d64565b60405180910390f35b61020e60048036038101906102099190612624565b610713565b60405161021b9190612d64565b60405180910390f35b61023e60048036038101906102399190612490565b61073b565b005b61025a60048036038101906102559190612596565b61079b565b6040516102679190612d64565b60405180910390f35b61028a60048036038101906102859190612490565b6107f6565b005b6102a660048036038101906102a191906126d1565b610816565b6040516102b39190612d64565b60405180910390f35b6102d660048036038101906102d191906126d1565b610839565b6040516102e39190612aa0565b60405180910390f35b610306600480360381019061030191906126d1565b610870565b6040516103139190612b22565b60405180910390f35b610324610918565b6040516103319190612b22565b60405180910390f35b610354600480360381019061034f919061242b565b6109aa565b6040516103619190612d64565b60405180910390f35b610384600480360381019061037f9190612665565b610a69565b005b6103a0600480360381019061039b91906126d1565b610c09565b6040516103ad9190612b22565b60405180910390f35b6103be610cb1565b6040516103cb9190612b22565b60405180910390f35b6103ee60048036038101906103e9919061255a565b610d43565b005b61040a600480360381019061040591906124df565b610ec4565b005b610426600480360381019061042191906126d1565b610f26565b6040516104339190612b22565b60405180910390f35b61045660048036038101906104519190612454565b611099565b6040516104639190612b07565b60405180910390f35b6000806000837bffffffffffffffffffffffffffffffffffffffffffffffffffffffff19167bffffffffffffffffffffffffffffffffffffffffffffffffffffffff1916815260200190815260200160002060009054906101000a900460ff169050919050565b6060600680546104e290612fef565b80601f016020809104026020016040519081016040528092919081815260200182805461050e90612fef565b801561055b5780601f106105305761010080835404028352916020019161055b565b820191906000526020600020905b81548152906001019060200180831161053e57829003601f168201915b5050505050905090565b60006105708261112d565b6105af576040517f08c379a00000000000000000000000000000000000000000000000000000000081526004016105a690612ca4565b60405180910390fd5b6004600083815260200190815260200160002060009054906101000a900473ffffffffffffffffffffffffffffffffffffffff169050919050565b60006105f582610839565b90508073ffffffffffffffffffffffffffffffffffffffff168373ffffffffffffffffffffffffffffffffffffffff161415610666576040517f08c379a000000000000000000000000000000000000000000000000000000000815260040161065d90612d04565b60405180910390fd5b8073ffffffffffffffffffffffffffffffffffffffff1661068561114a565b73ffffffffffffffffffffffffffffffffffffffff1614806106b457506106b3816106ae61114a565b611099565b5b6106f3576040517f08c379a00000000000000000000000000000000000000000000000000000000081526004016106ea90612c24565b60405180910390fd5b6106fd8383611152565b505050565b600061070e600261120b565b905090565b6000600e826040516107259190612a65565b9081526020016040518091039020549050919050565b61074c61074661114a565b82611220565b61078b576040517f08c379a000000000000000000000000000000000000000000000000000000000815260040161078290612d24565b60405180910390fd5b6107968383836112fe565b505050565b60006107ee82600160008673ffffffffffffffffffffffffffffffffffffffff1673ffffffffffffffffffffffffffffffffffffffff16815260200190815260200160002061151590919063ffffffff16565b905092915050565b61081183838360405180602001604052806000815250610ec4565b505050565b60008061082d83600261152f90919063ffffffff16565b50905080915050919050565b6000610869826040518060600160405280602981526020016136cf60299139600261155b9092919063ffffffff16565b9050919050565b6060600b6000838152602001908152602001600020600001805461089390612fef565b80601f01602080910402602001604051908101604052809291908181526020018280546108bf90612fef565b801561090c5780601f106108e15761010080835404028352916020019161090c565b820191906000526020600020905b8154815290600101906020018083116108ef57829003601f168201915b50505050509050919050565b60606009805461092790612fef565b80601f016020809104026020016040519081016040528092919081815260200182805461095390612fef565b80156109a05780601f10610975576101008083540402835291602001916109a0565b820191906000526020600020905b81548152906001019060200180831161098357829003601f168201915b5050505050905090565b60008073ffffffffffffffffffffffffffffffffffffffff168273ffffffffffffffffffffffffffffffffffffffff161415610a1b576040517f08c379a0000000000000000000000000000000000000000000000000000000008152600401610a1290612c44565b60405180910390fd5b610a62600160008473ffffffffffffffffffffffffffffffffffffffff1673ffffffffffffffffffffffffffffffffffffffff16815260200190815260200160002061157a565b9050919050565b600a6000815480929190610a7c90613052565b9190505550600c82604051610a919190612a65565b908152602001604051809103902060009054906101000a900460ff1615610ab757600080fd5b600d81604051610ac79190612a65565b908152602001604051809103902060009054906101000a900460ff1615610aed57600080fd5b81600b6000600a5481526020019081526020016000206000019080519060200190610b1992919061224f565b5080600b6000600a5481526020019081526020016000206001019080519060200190610b4692919061224f565b50600a54600b6000600a54815260200190815260200160002060020181905550600a54600e83604051610b799190612a65565b908152602001604051809103902081905550610b9733600a5461158f565b6001600c83604051610ba99190612a65565b908152602001604051809103902060006101000a81548160ff0219169083151502179055506001600d82604051610be09190612a65565b908152602001604051809103902060006101000a81548160ff0219169083151502179055505050565b6060600b60008381526020019081526020016000206001018054610c2c90612fef565b80601f0160208091040260200160405190810160405280929190818152602001828054610c5890612fef565b8015610ca55780601f10610c7a57610100808354040283529160200191610ca5565b820191906000526020600020905b815481529060010190602001808311610c8857829003601f168201915b50505050509050919050565b606060078054610cc090612fef565b80601f0160208091040260200160405190810160405280929190818152602001828054610cec90612fef565b8015610d395780601f10610d0e57610100808354040283529160200191610d39565b820191906000526020600020905b815481529060010190602001808311610d1c57829003601f168201915b5050505050905090565b610d4b61114a565b73ffffffffffffffffffffffffffffffffffffffff168273ffffffffffffffffffffffffffffffffffffffff161415610db9576040517f08c379a0000000000000000000000000000000000000000000000000000000008152600401610db090612bc4565b60405180910390fd5b8060056000610dc661114a565b73ffffffffffffffffffffffffffffffffffffffff1673ffffffffffffffffffffffffffffffffffffffff16815260200190815260200160002060008473ffffffffffffffffffffffffffffffffffffffff1673ffffffffffffffffffffffffffffffffffffffff16815260200190815260200160002060006101000a81548160ff0219169083151502179055508173ffffffffffffffffffffffffffffffffffffffff16610e7361114a565b73ffffffffffffffffffffffffffffffffffffffff167f17307eab39ab6107e8899845ad3d59bd9653f200f220920489ca2b5937696c3183604051610eb89190612b07565b60405180910390a35050565b610ed5610ecf61114a565b83611220565b610f14576040517f08c379a0000000000000000000000000000000000000000000000000000000008152600401610f0b90612d24565b60405180910390fd5b610f208484848461171d565b50505050565b6060610f318261112d565b610f70576040517f08c379a0000000000000000000000000000000000000000000000000000000008152600401610f6790612ce4565b60405180910390fd5b6000600860008481526020019081526020016000208054610f9090612fef565b80601f0160208091040260200160405190810160405280929190818152602001828054610fbc90612fef565b80156110095780601f10610fde57610100808354040283529160200191611009565b820191906000526020600020905b815481529060010190602001808311610fec57829003601f168201915b50505050509050600061101a610918565b9050600081511415611030578192505050611094565b60008251111561106557808260405160200161104d929190612a7c565b60405160208183030381529060405292505050611094565b8061106f85611779565b604051602001611080929190612a7c565b604051602081830303815290604052925050505b919050565b6000600560008473ffffffffffffffffffffffffffffffffffffffff1673ffffffffffffffffffffffffffffffffffffffff16815260200190815260200160002060008373ffffffffffffffffffffffffffffffffffffffff1673ffffffffffffffffffffffffffffffffffffffff16815260200190815260200160002060009054906101000a900460ff16905092915050565b600061114382600261193890919063ffffffff16565b9050919050565b600033905090565b816004600083815260200190815260200160002060006101000a81548173ffffffffffffffffffffffffffffffffffffffff021916908373ffffffffffffffffffffffffffffffffffffffff160217905550808273ffffffffffffffffffffffffffffffffffffffff166111c583610839565b73ffffffffffffffffffffffffffffffffffffffff167f8c5be1e5ebec7d5bd14f71427d1e84f3dd0314c0f7b2291e5b200ac8c7c3b92560405160405180910390a45050565b600061121982600001611952565b9050919050565b600061122b8261112d565b61126a576040517f08c379a000000000000000000000000000000000000000000000000000000000815260040161126190612c04565b60405180910390fd5b600061127583610839565b90508073ffffffffffffffffffffffffffffffffffffffff168473ffffffffffffffffffffffffffffffffffffffff1614806112e457508373ffffffffffffffffffffffffffffffffffffffff166112cc84610565565b73ffffffffffffffffffffffffffffffffffffffff16145b806112f557506112f48185611099565b5b91505092915050565b8273ffffffffffffffffffffffffffffffffffffffff1661131e82610839565b73ffffffffffffffffffffffffffffffffffffffff1614611374576040517f08c379a000000000000000000000000000000000000000000000000000000000815260040161136b90612cc4565b60405180910390fd5b600073ffffffffffffffffffffffffffffffffffffffff168273ffffffffffffffffffffffffffffffffffffffff1614156113e4576040517f08c379a00000000000000000000000000000000000000000000000000000000081526004016113db90612ba4565b60405180910390fd5b6113ef838383611963565b6113fa600082611152565b61144b81600160008673ffffffffffffffffffffffffffffffffffffffff1673ffffffffffffffffffffffffffffffffffffffff16815260200190815260200160002061196890919063ffffffff16565b5061149d81600160008573ffffffffffffffffffffffffffffffffffffffff1673ffffffffffffffffffffffffffffffffffffffff16815260200190815260200160002061198290919063ffffffff16565b506114b48183600261199c9092919063ffffffff16565b50808273ffffffffffffffffffffffffffffffffffffffff168473ffffffffffffffffffffffffffffffffffffffff167fddf252ad1be2c89b69c2b068fc378daa952ba7f163c4a11628f55a4df523b3ef60405160405180910390a4505050565b600061152483600001836119d1565b60001c905092915050565b6000806000806115428660000186611a6b565b915091508160001c8160001c9350935050509250929050565b600061156e846000018460001b84611b1b565b60001c90509392505050565b600061158882600001611be2565b9050919050565b600073ffffffffffffffffffffffffffffffffffffffff168273ffffffffffffffffffffffffffffffffffffffff1614156115ff576040517f08c379a00000000000000000000000000000000000000000000000000000000081526004016115f690612c84565b60405180910390fd5b6116088161112d565b15611648576040517f08c379a000000000000000000000000000000000000000000000000000000000815260040161163f90612b84565b60405180910390fd5b61165460008383611963565b6116a581600160008573ffffffffffffffffffffffffffffffffffffffff1673ffffffffffffffffffffffffffffffffffffffff16815260200190815260200160002061198290919063ffffffff16565b506116bc8183600261199c9092919063ffffffff16565b50808273ffffffffffffffffffffffffffffffffffffffff16600073ffffffffffffffffffffffffffffffffffffffff167fddf252ad1be2c89b69c2b068fc378daa952ba7f163c4a11628f55a4df523b3ef60405160405180910390a45050565b6117288484846112fe565b61173484848484611bf3565b611773576040517f08c379a000000000000000000000000000000000000000000000000000000000815260040161176a90612b64565b60405180910390fd5b50505050565b606060008214156117c1576040518060400160405280600181526020017f30000000000000000000000000000000000000000000000000000000000000008152509050611933565b600082905060005b600082146117f35780806117dc90613052565b915050600a826117ec9190612eaa565b91506117c9565b60008167ffffffffffffffff811115611835577f4e487b7100000000000000000000000000000000000000000000000000000000600052604160045260246000fd5b6040519080825280601f01601f1916602001820160405280156118675781602001600182028036833780820191505090505b50905060006001836118799190612edb565b90508593505b6000841461192b57600a84611894919061309b565b60306118a09190612e54565b60f81b8282806118af90612fc5565b9350815181106118e8577f4e487b7100000000000000000000000000000000000000000000000000000000600052603260045260246000fd5b60200101907effffffffffffffffffffffffffffffffffffffffffffffffffffffffffffff1916908160001a905350600a846119249190612eaa565b935061187f565b819450505050505b919050565b600061194a836000018360001b611d57565b905092915050565b600081600001805490509050919050565b505050565b600061197a836000018360001b611d7a565b905092915050565b6000611994836000018360001b611f04565b905092915050565b60006119c8846000018460001b8473ffffffffffffffffffffffffffffffffffffffff1660001b611f74565b90509392505050565b600081836000018054905011611a1c576040517f08c379a0000000000000000000000000000000000000000000000000000000008152600401611a1390612b44565b60405180910390fd5b826000018281548110611a58577f4e487b7100000000000000000000000000000000000000000000000000000000600052603260045260246000fd5b9060005260206000200154905092915050565b60008082846000018054905011611ab7576040517f08c379a0000000000000000000000000000000000000000000000000000000008152600401611aae90612c64565b60405180910390fd5b6000846000018481548110611af5577f4e487b7100000000000000000000000000000000000000000000000000000000600052603260045260246000fd5b906000526020600020906002020190508060000154816001015492509250509250929050565b60008084600101600085815260200190815260200160002054905060008114158390611b7d576040517f08c379a0000000000000000000000000000000000000000000000000000000008152600401611b749190612b22565b60405180910390fd5b5084600001600182611b8f9190612edb565b81548110611bc6577f4e487b7100000000000000000000000000000000000000000000000000000000600052603260045260246000fd5b9060005260206000209060020201600101549150509392505050565b600081600001805490509050919050565b6000611c148473ffffffffffffffffffffffffffffffffffffffff16612086565b611c215760019050611d4f565b6000611ce863150b7a0260e01b611c3661114a565b888787604051602401611c4c9493929190612abb565b604051602081830303815290604052907bffffffffffffffffffffffffffffffffffffffffffffffffffffffff19166020820180517bffffffffffffffffffffffffffffffffffffffffffffffffffffffff838183161783525050505060405180606001604052806032815260200161369d603291398773ffffffffffffffffffffffffffffffffffffffff166120999092919063ffffffff16565b9050600081806020019051810190611d0091906125fb565b905063150b7a0260e01b7bffffffffffffffffffffffffffffffffffffffffffffffffffffffff1916817bffffffffffffffffffffffffffffffffffffffffffffffffffffffff191614925050505b949350505050565b600080836001016000848152602001908152602001600020541415905092915050565b60008083600101600084815260200190815260200160002054905060008114611ef8576000600182611dac9190612edb565b9050600060018660000180549050611dc49190612edb565b90506000866000018281548110611e04577f4e487b7100000000000000000000000000000000000000000000000000000000600052603260045260246000fd5b9060005260206000200154905080876000018481548110611e4e577f4e487b7100000000000000000000000000000000000000000000000000000000600052603260045260246000fd5b9060005260206000200181905550600183611e699190612e54565b8760010160008381526020019081526020016000208190555086600001805480611ebc577f4e487b7100000000000000000000000000000000000000000000000000000000600052603160045260246000fd5b60019003818190600052602060002001600090559055866001016000878152602001908152602001600020600090556001945050505050611efe565b60009150505b92915050565b6000611f1083836120b1565b611f69578260000182908060018154018082558091505060019003906000526020600020016000909190919091505582600001805490508360010160008481526020019081526020016000208190555060019050611f6e565b600090505b92915050565b600080846001016000858152602001908152602001600020549050600081141561201b5784600001604051806040016040528086815260200185815250908060018154018082558091505060019003906000526020600020906002020160009091909190915060008201518160000155602082015181600101555050846000018054905085600101600086815260200190815260200160002081905550600191505061207f565b828560000160018361202d9190612edb565b81548110612064577f4e487b7100000000000000000000000000000000000000000000000000000000600052603260045260246000fd5b90600052602060002090600202016001018190555060009150505b9392505050565b600080823b905060008111915050919050565b60606120a884846000856120d4565b90509392505050565b600080836001016000848152602001908152602001600020541415905092915050565b606082471015612119576040517f08c379a000000000000000000000000000000000000000000000000000000000815260040161211090612be4565b60405180910390fd5b61212285612086565b612161576040517f08c379a000000000000000000000000000000000000000000000000000000000815260040161215890612d44565b60405180910390fd5b6000808673ffffffffffffffffffffffffffffffffffffffff16858760405161218a9190612a4e565b60006040518083038185875af1925050503d80600081146121c7576040519150601f19603f3d011682016040523d82523d6000602084013e6121cc565b606091505b50915091506121dc8282866121e8565b92505050949350505050565b606083156121f857829050612248565b60008351111561220b5782518084602001fd5b816040517f08c379a000000000000000000000000000000000000000000000000000000000815260040161223f9190612b22565b60405180910390fd5b9392505050565b82805461225b90612fef565b90600052602060002090601f01602090048101928261227d57600085556122c4565b82601f1061229657805160ff19168380011785556122c4565b828001600101855582156122c4579182015b828111156122c35782518255916020019190600101906122a8565b5b5090506122d191906122d5565b5090565b5b808211156122ee5760008160009055506001016122d6565b5090565b600061230561230084612da4565b612d7f565b90508281526020810184848401111561231d57600080fd5b612328848285612f83565b509392505050565b600061234361233e84612dd5565b612d7f565b90508281526020810184848401111561235b57600080fd5b612366848285612f83565b509392505050565b60008135905061237d81613640565b92915050565b60008135905061239281613657565b92915050565b6000813590506123a78161366e565b92915050565b6000815190506123bc8161366e565b92915050565b600082601f8301126123d357600080fd5b81356123e38482602086016122f2565b91505092915050565b600082601f8301126123fd57600080fd5b813561240d848260208601612330565b91505092915050565b60008135905061242581613685565b92915050565b60006020828403121561243d57600080fd5b600061244b8482850161236e565b91505092915050565b6000806040838503121561246757600080fd5b60006124758582860161236e565b92505060206124868582860161236e565b9150509250929050565b6000806000606084860312156124a557600080fd5b60006124b38682870161236e565b93505060206124c48682870161236e565b92505060406124d586828701612416565b9150509250925092565b600080600080608085870312156124f557600080fd5b60006125038782880161236e565b94505060206125148782880161236e565b935050604061252587828801612416565b925050606085013567ffffffffffffffff81111561254257600080fd5b61254e878288016123c2565b91505092959194509250565b6000806040838503121561256d57600080fd5b600061257b8582860161236e565b925050602061258c85828601612383565b9150509250929050565b600080604083850312156125a957600080fd5b60006125b78582860161236e565b92505060206125c885828601612416565b9150509250929050565b6000602082840312156125e457600080fd5b60006125f284828501612398565b91505092915050565b60006020828403121561260d57600080fd5b600061261b848285016123ad565b91505092915050565b60006020828403121561263657600080fd5b600082013567ffffffffffffffff81111561265057600080fd5b61265c848285016123ec565b91505092915050565b6000806040838503121561267857600080fd5b600083013567ffffffffffffffff81111561269257600080fd5b61269e858286016123ec565b925050602083013567ffffffffffffffff8111156126bb57600080fd5b6126c7858286016123ec565b9150509250929050565b6000602082840312156126e357600080fd5b60006126f184828501612416565b91505092915050565b61270381612f0f565b82525050565b61271281612f21565b82525050565b600061272382612e06565b61272d8185612e1c565b935061273d818560208601612f92565b61274681613188565b840191505092915050565b600061275c82612e06565b6127668185612e2d565b9350612776818560208601612f92565b80840191505092915050565b600061278d82612e11565b6127978185612e38565b93506127a7818560208601612f92565b6127b081613188565b840191505092915050565b60006127c682612e11565b6127d08185612e49565b93506127e0818560208601612f92565b80840191505092915050565b60006127f9602283612e38565b915061280482613199565b604082019050919050565b600061281c603283612e38565b9150612827826131e8565b604082019050919050565b600061283f601c83612e38565b915061284a82613237565b602082019050919050565b6000612862602483612e38565b915061286d82613260565b604082019050919050565b6000612885601983612e38565b9150612890826132af565b602082019050919050565b60006128a8602683612e38565b91506128b3826132d8565b604082019050919050565b60006128cb602c83612e38565b91506128d682613327565b604082019050919050565b60006128ee603883612e38565b91506128f982613376565b604082019050919050565b6000612911602a83612e38565b915061291c826133c5565b604082019050919050565b6000612934602283612e38565b915061293f82613414565b604082019050919050565b6000612957602083612e38565b915061296282613463565b602082019050919050565b600061297a602c83612e38565b91506129858261348c565b604082019050919050565b600061299d602983612e38565b91506129a8826134db565b604082019050919050565b60006129c0602f83612e38565b91506129cb8261352a565b604082019050919050565b60006129e3602183612e38565b91506129ee82613579565b604082019050919050565b6000612a06603183612e38565b9150612a11826135c8565b604082019050919050565b6000612a29601d83612e38565b9150612a3482613617565b602082019050919050565b612a4881612f79565b82525050565b6000612a5a8284612751565b915081905092915050565b6000612a7182846127bb565b915081905092915050565b6000612a8882856127bb565b9150612a9482846127bb565b91508190509392505050565b6000602082019050612ab560008301846126fa565b92915050565b6000608082019050612ad060008301876126fa565b612add60208301866126fa565b612aea6040830185612a3f565b8181036060830152612afc8184612718565b905095945050505050565b6000602082019050612b1c6000830184612709565b92915050565b60006020820190508181036000830152612b3c8184612782565b905092915050565b60006020820190508181036000830152612b5d816127ec565b9050919050565b60006020820190508181036000830152612b7d8161280f565b9050919050565b60006020820190508181036000830152612b9d81612832565b9050919050565b60006020820190508181036000830152612bbd81612855565b9050919050565b60006020820190508181036000830152612bdd81612878565b9050919050565b60006020820190508181036000830152612bfd8161289b565b9050919050565b60006020820190508181036000830152612c1d816128be565b9050919050565b60006020820190508181036000830152612c3d816128e1565b9050919050565b60006020820190508181036000830152612c5d81612904565b9050919050565b60006020820190508181036000830152612c7d81612927565b9050919050565b60006020820190508181036000830152612c9d8161294a565b9050919050565b60006020820190508181036000830152612cbd8161296d565b9050919050565b60006020820190508181036000830152612cdd81612990565b9050919050565b60006020820190508181036000830152612cfd816129b3565b9050919050565b60006020820190508181036000830152612d1d816129d6565b9050919050565b60006020820190508181036000830152612d3d816129f9565b9050919050565b60006020820190508181036000830152612d5d81612a1c565b9050919050565b6000602082019050612d796000830184612a3f565b92915050565b6000612d89612d9a565b9050612d958282613021565b919050565b6000604051905090565b600067ffffffffffffffff821115612dbf57612dbe613159565b5b612dc882613188565b9050602081019050919050565b600067ffffffffffffffff821115612df057612def613159565b5b612df982613188565b9050602081019050919050565b600081519050919050565b600081519050919050565b600082825260208201905092915050565b600081905092915050565b600082825260208201905092915050565b600081905092915050565b6000612e5f82612f79565b9150612e6a83612f79565b9250827fffffffffffffffffffffffffffffffffffffffffffffffffffffffffffffffff03821115612e9f57612e9e6130cc565b5b828201905092915050565b6000612eb582612f79565b9150612ec083612f79565b925082612ed057612ecf6130fb565b5b828204905092915050565b6000612ee682612f79565b9150612ef183612f79565b925082821015612f0457612f036130cc565b5b828203905092915050565b6000612f1a82612f59565b9050919050565b60008115159050919050565b60007fffffffff0000000000000000000000000000000000000000000000000000000082169050919050565b600073ffffffffffffffffffffffffffffffffffffffff82169050919050565b6000819050919050565b82818337600083830152505050565b60005b83811015612fb0578082015181840152602081019050612f95565b83811115612fbf576000848401525b50505050565b6000612fd082612f79565b91506000821415612fe457612fe36130cc565b5b600182039050919050565b6000600282049050600182168061300757607f821691505b6020821081141561301b5761301a61312a565b5b50919050565b61302a82613188565b810181811067ffffffffffffffff8211171561304957613048613159565b5b80604052505050565b600061305d82612f79565b91507fffffffffffffffffffffffffffffffffffffffffffffffffffffffffffffffff8214156130905761308f6130cc565b5b600182019050919050565b60006130a682612f79565b91506130b183612f79565b9250826130c1576130c06130fb565b5b828206905092915050565b7f4e487b7100000000000000000000000000000000000000000000000000000000600052601160045260246000fd5b7f4e487b7100000000000000000000000000000000000000000000000000000000600052601260045260246000fd5b7f4e487b7100000000000000000000000000000000000000000000000000000000600052602260045260246000fd5b7f4e487b7100000000000000000000000000000000000000000000000000000000600052604160045260246000fd5b6000601f19601f8301169050919050565b7f456e756d657261626c655365743a20696e646578206f7574206f6620626f756e60008201527f6473000000000000000000000000000000000000000000000000000000000000602082015250565b7f4552433732313a207472616e7366657220746f206e6f6e20455243373231526560008201527f63656976657220696d706c656d656e7465720000000000000000000000000000602082015250565b7f4552433732313a20746f6b656e20616c7265616479206d696e74656400000000600082015250565b7f4552433732313a207472616e7366657220746f20746865207a65726f2061646460008201527f7265737300000000000000000000000000000000000000000000000000000000602082015250565b7f4552433732313a20617070726f766520746f2063616c6c657200000000000000600082015250565b7f416464726573733a20696e73756666696369656e742062616c616e636520666f60008201527f722063616c6c0000000000000000000000000000000000000000000000000000602082015250565b7f4552433732313a206f70657261746f7220717565727920666f72206e6f6e657860008201527f697374656e7420746f6b656e0000000000000000000000000000000000000000602082015250565b7f4552433732313a20617070726f76652063616c6c6572206973206e6f74206f7760008201527f6e6572206e6f7220617070726f76656420666f7220616c6c0000000000000000602082015250565b7f4552433732313a2062616c616e636520717565727920666f7220746865207a6560008201527f726f206164647265737300000000000000000000000000000000000000000000602082015250565b7f456e756d657261626c654d61703a20696e646578206f7574206f6620626f756e60008201527f6473000000000000000000000000000000000000000000000000000000000000602082015250565b7f4552433732313a206d696e7420746f20746865207a65726f2061646472657373600082015250565b7f4552433732313a20617070726f76656420717565727920666f72206e6f6e657860008201527f697374656e7420746f6b656e0000000000000000000000000000000000000000602082015250565b7f4552433732313a207472616e73666572206f6620746f6b656e2074686174206960008201527f73206e6f74206f776e0000000000000000000000000000000000000000000000602082015250565b7f4552433732314d657461646174613a2055524920717565727920666f72206e6f60008201527f6e6578697374656e7420746f6b656e0000000000000000000000000000000000602082015250565b7f4552433732313a20617070726f76616c20746f2063757272656e74206f776e6560008201527f7200000000000000000000000000000000000000000000000000000000000000602082015250565b7f4552433732313a207472616e736665722063616c6c6572206973206e6f74206f60008201527f776e6572206e6f7220617070726f766564000000000000000000000000000000602082015250565b7f416464726573733a2063616c6c20746f206e6f6e2d636f6e7472616374000000600082015250565b61364981612f0f565b811461365457600080fd5b50565b61366081612f21565b811461366b57600080fd5b50565b61367781612f2d565b811461368257600080fd5b50565b61368e81612f79565b811461369957600080fd5b5056fe4552433732313a207472616e7366657220746f206e6f6e20455243373231526563656976657220696d706c656d656e7465724552433732313a206f776e657220717565727920666f72206e6f6e6578697374656e7420746f6b656ea26469706673582212201b7e25115909e0a3422560a5ecadb2fc7ee0e63bdf3809c8872a1d9a9978189e64736f6c63430008030033",
  "immutableReferences": {},
  "source": "pragma solidity ^0.8.3;\r\n//pragma solidity ^0.8.3;\r\nimport \"./ERC721/ERC721.sol\";\r\n\r\n\r\ncontract IpfsNft is ERC721 \r\n{  \r\n\r\n   struct Photo\r\n   {\r\n      string hash;\r\n      string title;\r\n      uint256 tokenId;\r\n   }\r\n\r\n   uint index = 0;\r\n   mapping(uint => Photo) _photoStructs;\r\n   mapping(string => bool) _hashExists;\r\n   mapping(string => bool) _titleExists;\r\n   mapping(string => uint) _idToHash;\r\n\r\n   constructor() ERC721(\"IpfsNft\", \"IPFSNFT\") public { }\r\n\r\n   function getHash(uint input) public returns(string memory)\r\n   {\r\n      return  _photoStructs[input].hash;\r\n   }\r\n\r\n   function getTitle(uint input) public returns(string memory)\r\n   {\r\n      return  _photoStructs[input].title;\r\n   }\r\n\r\n   function getTokenId(string memory input) public returns(uint256)\r\n   {\r\n      return  _idToHash[input];\r\n   }\r\n\r\n   \r\n   function mint(string memory photoHash, string memory photoTitle) public \r\n   {\r\n      //how many suppplies\r\n      index++;\r\n\r\n      //hash and title must have not been used again\r\n      require(!_hashExists[photoHash]);\r\n      require(!_titleExists[photoTitle]);\r\n\r\n      //assigns variables\r\n      _photoStructs[index].hash = photoHash;\r\n      _photoStructs[index].title = photoTitle;\r\n      _photoStructs[index].tokenId = index;\r\n\r\n\r\n      _idToHash[photoHash] = index;\r\n      _mint(msg.sender, index);\r\n\r\n      //hash and title cannot be used again\r\n      _hashExists[photoHash] = true;\r\n      _titleExists[photoTitle] = true;\r\n   }\r\n}\r\n",
  "sourcePath": "C:/Users/JAVSamonte/Documents/Ethereum/EthPics/src/contracts/IpfsNft.sol",
  "compiler": {
    "name": "solc",
    "version": "0.8.3+commit.8d00100c.Emscripten.clang"
  },
  "schemaVersion": "3.3.4",
  "updatedAt": "2021-04-09T00:06:55.502Z",
  "networkType": "ethereum",
  "devdoc": {
    "kind": "dev",
    "methods": {
      "approve(address,uint256)": {
        "details": "See {IERC721-approve}."
      },
      "balanceOf(address)": {
        "details": "See {IERC721-balanceOf}."
      },
      "baseURI()": {
        "details": "Returns the base URI set via {_setBaseURI}. This will be automatically added as a prefix in {tokenURI} to each token's URI, or to the token ID if no specific URI is set for that token ID."
      },
      "getApproved(uint256)": {
        "details": "See {IERC721-getApproved}."
      },
      "isApprovedForAll(address,address)": {
        "details": "See {IERC721-isApprovedForAll}."
      },
      "name()": {
        "details": "See {IERC721Metadata-name}."
      },
      "ownerOf(uint256)": {
        "details": "See {IERC721-ownerOf}."
      },
      "safeTransferFrom(address,address,uint256)": {
        "details": "See {IERC721-safeTransferFrom}."
      },
      "safeTransferFrom(address,address,uint256,bytes)": {
        "details": "See {IERC721-safeTransferFrom}."
      },
      "setApprovalForAll(address,bool)": {
        "details": "See {IERC721-setApprovalForAll}."
      },
      "supportsInterface(bytes4)": {
        "details": "See {IERC165-supportsInterface}. Time complexity O(1), guaranteed to always use less than 30 000 gas."
      },
      "symbol()": {
        "details": "See {IERC721Metadata-symbol}."
      },
      "tokenByIndex(uint256)": {
        "details": "See {IERC721Enumerable-tokenByIndex}."
      },
      "tokenOfOwnerByIndex(address,uint256)": {
        "details": "See {IERC721Enumerable-tokenOfOwnerByIndex}."
      },
      "tokenURI(uint256)": {
        "details": "See {IERC721Metadata-tokenURI}."
      },
      "totalSupply()": {
        "details": "See {IERC721Enumerable-totalSupply}."
      },
      "transferFrom(address,address,uint256)": {
        "details": "See {IERC721-transferFrom}."
      }
    },
    "version": 1
  },
  "userdoc": {
    "kind": "user",
    "methods": {},
    "version": 1
  }
}